:020000040800F2
:10400000883500205DBC000801BC000803BC000826
:1040100005BC000807BC000809BC0008000000003F
:104020000000000000000000000000000BBC0008C1
:104030000DBC0008000000000FBC000811BC000807
:104040009DBC00089DBC00089DBC00089DBC0008EC
:104050009DBC00089DBC00089DBC00089DBC0008DC
:104060009DBC00089DBC00089DBC00089DBC0008CC
:104070009DBC00089DBC00089DBC00089DBC0008BC
:104080009DBC00089DBC00089DBC00089DBC0008AC
:1040900013BC00089DBC00089DBC00089DBC000826
:1040A0009DBC00089DBC00089DBC00089DBC00088C
:1040B00017BC00081BBC00089DBC00089DBC000884
:1040C0009DBC00089DBC00089DBC00089DBC00086C
:1040D0009DBC00089DBC00089DBC00089DBC00085C
:1040E0009DBC00089DBC00089DBC00089DBC00084C
:1040F0009DBC00089DBC00089DBC00089DBC00083C
:104100009DBC00089DBC00089DBC00089DBC00082B
:104110009DBC00089DBC00089DBC00089DBC00081B
:104120009DBC00089DBC00089DBC00089DBC00080B
:10413000DFF8640B40697047DFF85C1B486170472B
:10414000DFF8541B08707047DFF84C0B007870479D
:10415000DFF8481B08707047DFF8400B00787047A5
:1041600038B901EBC100052190FBF1F000F5A0701A
:1041700006E001EB8100A0F5C860092190FBF1F099
:1041800000B2704710B5DFF8184B00206060A061E6
:1041900001F039FF08B9082005E0042807DB0120F9
:1041A00001F019FF0620BDE8104002F091B801208F
:1041B00002F08EF8DFF8B00EC069606110BD30B556
:1041C00083B004460D46062100A802F095FA2A465F
:1041D00000F01EFB05F1090100A8DFF8BC2A1278E7
:1041E0006AB9642D07DA0A2D03DA002D05D50029F6
:1041F00001D443210CE0432113E043210EE0642D60
:1042000009DA0A2D03DA002D07D5002903D4452148
:104210008170202105E0452103E0452141702021E6
:104220008170C17000A9204601F066FBDFF8700ABA
:104230001421016000F0D2FA37BD70B582B0DFF80A
:104240002C4E60780FF2880120B900911023602273
:1042500000210BE0012802D16068009002E00228F2
:1042600008D10091102360220021002002F0AAFA58
:10427000606025E0032823D10025542616E01C2089
:104280000FF2EC1100FB051060600E21F01D02F032
:10429000C0FA6068009010230E220021F0B202F0F4
:1042A00091FA6060F61F0A2002F04EFC20788642E8
:1042B000E5DA0E3020706D1C062DDEDB002020704C
:1042C0006078401CC0B2042808BF0020607073BD35
:1042D00000000000000000000000000000000000DE
:1042E00000000000000000000000000000000000CE
:1042F0000000000000000000000000000000008836
:1043000098BFBF9888000000008080808080800077
:10431000000000000000000000000000000000009D
:10432000000000000000000000000000000000008D
:10433000002060606060606090909090909090909D
:10434000909090909090909090909090909090906D
:1043500090606060606060606070F88884828283D2
:104360008383838383828282828383838383838222
:104370008282828286848484848484848484848403
:104380008484848484848282828282828282FE0007
:10439000000000000000000000000000000000001D
:1043A000000000000000000000000000000000000D
:1043B000000000000000000000000000000000906D
:1043C000B0FEFEB090000000008080808080800001
:1043D00000000000000000000000000000000000DD
:1043E00000000000000000000000000000000000CD
:1043F00000206060606060609090909090909090DD
:1044000090909090909090909090909090909090AC
:1044100090606060606060606070F8888482828311
:104420008383838383828282828383838383838261
:104430008282828286848484848484848484848442
:104440008484848484848282828282828282FE0046
:1044500000F0F00000F0F0F00000FCF8F0E0C080A8
:10446000000F0F00000F0F0F00003F1F0F07030189
:10447000000000000000000000000000000000003C
:104480000000000000000000000000000001FFFF2D
:1044900001010101010181C67E380080FFFF818199
:1044A000010101010000000000202020E0E0008068
:1044B00040402060C04000808080FFFF818080807D
:1044C000000000000000008040402020204040808C
:1044D000000000003F7F4484848484848447270054
:1044E0000000008040402020204040C0000000002C
:1044F00020C3828684848C8C887830000000008001
:1045000040402020204040C00000000020C38286A0
:1045100084848C8C887830000000000000000080CB
:1045200080C0602010180C86E0E0E0ECFCF2F3F1B3
:10453000F0F8ECE4E4E2E301000000000000000019
:104540000080C0402030180CC0C0C0D8F8E4E6E3BA
:10455000E1F1D8C8C8C4C603FCFCFC00000000C0E0
:104560003826250101010101010101027F7F7F063B
:104570000909090909093948484848301008080458
:10458000FCFC00000000C0382625010101010101EA
:10459000010102027F7F0609090909090939484812
:1045A0004848301008080404000000000000000023
:1045B0008080C06030180C8600E0E0ECF4F6F6FB7A
:1045C000F5E8E8E4E2E2E10000000000000000009D
:1045D000000080C06030180C00C0C0D8E8ECECF6D9
:1045E000EBD1D1C8C4C4C201FEFEFE804040605879
:1045F00054020202020202843F3F3F000101010116
:104600000107050506020100FEFE80404060585487
:1046100002020202020284843F3F00010101010103
:104620000705050602010000F8B50C468578303D07
:10463000EDB20A2D38BF2A46C578303DEDB20A2DBD
:1046400038BF2B4600783038C0B20A2838BF014640
:104650000026DFF80C5D18200FF2780700FB016CD4
:104660001CF807C006EB050E8EF860C000FB026C5C
:104670001CF807C08EF890C000FB036C1CF807C044
:104680008EF8A8C0761C182EE8DB102744B9022348
:104690000C220821284600F0C7FD05F1C00000E00B
:1046A00028460026009010230C2200210C2001F047
:1046B00075F9761C082EF5DB7F1EE7D14CB94FF457
:1046C0007A7002F041FA02F0F3F8BDE8F14001F02F
:1046D000F2BDF1BD00E010080810E000000000008D
:1046E000000F102020100F0000000000001010F834
:1046F00000000000000000000020203F20200000FB
:104700000000000000700808088870000000000029
:1047100000302824222130000000000000300888EA
:1047200088483000000000000018202020110E00F2
:10473000000000000000C02010F800000000000091
:1047400000070424243F24000000000000F808882B
:1047500088080800000000000019212020110E0028
:104760000000000000E01088881800000000000031
:10477000000F112020110E00000000000038080872
:10478000C8380800000000000000003F00000000E2
:104790000000000000708808088870000000000019
:1047A000001C222121221C000000000000E0100853
:1047B0000810E000000000000000312222110F006C
:1047C00000000000000000000000000000000000E9
:1047D0000030300000000000000000001CB5002088
:1047E00001F0FFFB0446062100A801F085FF00F060
:1047F0000EF800A8642CAFBF562156218DF8021088
:104800002021C17000A9322001F0A0F813BD22467A
:1048100061A100A802F0C2BB10B582B00FF2100077
:10482000002400F0F7F9641C062CFAD313BD000035
:10483000000000C0F038080404040408081C00004C
:104840000000000F1F306040404040203008000052
:10485000000000C0F0180C0404040C18F0C00000A4
:10486000000000071F306040404060301F0700001C
:1048700000000004FC1C38E0C0000004FC04000040
:10488000000000407F40000001071E387F0000004C
:1048900000000004FCFC84848484E4040C10000008
:1048A000000000407F7F4000000003000000000087
:1048B0000000000000040404FCFC040404000000E8
:1048C00000000000004040407F7F4040400000006A
:1048D000000000C0F03808040404040C1C000000B0
:1048E000000000071F3860404042423E3E02020086
:1048F0002DE9F04184B004468846062101A801F064
:10490000FBFE25A62246314601A802F047FBDFF850
:10491000607701AD387828B9642CA8BF432008DA45
:10492000432004E0642CA8BF452002DA4520A8708B
:104930002020E87001A9012000F0DEFFB878411CBA
:10494000B9700FF2580100F0F5FD292001F03AFF8F
:10495000B878032804BF0020B870062101A801F030
:10496000CBFE4246314601A802F018FB387828B940
:10497000642CA8BF432008DA432004E0642CA8BFBD
:10498000452002DA4520A8702020E87001A93820CF
:1049900000F0B2FFBDE8FF81256400000000306038
:1049A000C080000000000000000000000000180CA3
:1049B000060301000000000000000000000030605D
:1049C000C0803060C0800000000000000000180CB3
:1049D0000603190C0603010000000000000030600F
:1049E000C0803060C0803060C08000000000180CC3
:1049F0000603190C0603190C060301000000183009
:104A000060C08000000000000000000000000C06F4
:104A1000030100000000000000000000000018304A
:104A200060C0983060C080000000000000000C06EC
:104A300003010C0603010000000000000000183014
:104A400060C0983060C0983060C0800000000C06E4
:104A500003010C0603010C060301000010B582B02F
:104A6000012808BF0FF22C0103D0022808BF0FF263
:104A7000E401009100F03EFA012400F0CBF8641C40
:104A8000062CFAD34FF47A7002F05EF8BDE81340BA
:104A900001F011BCE01864E282010101010182E22F
:104AA0006418E000030C1021274E5850584E27215F
:104AB000100C0300F00C0201010101020F000000C4
:104AC00000000000030C0810101010080600000081
:104AD0000000000000601010909090E000000000C6
:104AE00000000000000E11111010081F1018000027
:104AF0000000000000010101FF00000000000000B4
:104B000000000000001010101F1010100000000026
:104B10000000000000000000000000000000000095
:104B20000000000080808080808080808080000085
:104B30000000000001077980008079070100000073
:104B400000000000000000071C070000000000003B
:104B500000000000E018040212214181814122126C
:104B60000418E000030C102028444241414224284C
:104B7000100C0300F00C0201010101020F00000003
:104B800000000000030C08101010100806000000C0
:104B90000000000000601010909090E00000000005
:104BA00000000000000E11111010081F1018000066
:104BB0000000000000010101FF00000000000000F3
:104BC00000000000001010101F1010100000000066
:104BD00000000000000000000000000000000000D5
:104BE00000000000808080808080808080800000C5
:104BF0000000000000010719E0B00D0301000000F3
:104C00000000000000101817000116181000000026
:104C10000000000000901023102200212001C0B2EB
:104C200001F0D0BD70B582B00FF2780501F0D6F971
:104C3000022808D00ED304280AD006D3052808BFBE
:104C40000FF20C1406E02C4604E00FF2901401E081
:104C50000FF2142405F18C00009000F04BF9DFF8FE
:104C6000F05D287880B90226142000FB0640283821
:104C7000009010230A2200210A2000F08FFE761CEB
:104C8000092EF1DB012004E05021102001F0C1FDCC
:104C90000020287073BD00001C0300208431002018
:104CA000CC30002001FF00E11FE000FF0100000107
:104CB0001E0100011E010000006010109090E00035
:104CC0000000000E111110081F1800001010F04015
:104CD00020101030000010101F1010000000000005
:104CE00010F02010101010E00000101F1000000045
:104CF000101F100000001013F3000000000000005F
:104D000010101F101000000010F02010101010E004
:104D10000000101F10000000101F100000E0101015
:104D20001010F0100000007D8A8A8A8A91700000BD
:104D300000000080E0F8FE0707FEF8E080000000B9
:104D4000101C1F1F1F1F1F12121F1F1F1F1F1C10B1
:104D500001FF0100000000000000101F10101010E3
:104D60001018040000C0201010101020C000000710
:104D7000081010101008070010F00010F01000F0DC
:104D8000100000031C0300031C030000002020206F
:104D90002020202020000000000000000000000073
:104DA00001077980008079070100000000071C07D7
:104DB0000000000000C0201010101020C0000007EC
:104DC000081010101008070000001010FE1010103E
:104DD0000000000000000F1010080000001C22213D
:104DE000414141820700001E081010101008070002
:104DF00000C0A090909090A0C00000070810101074
:104E00001008040010F02010101010E00000101F17
:104E100010000000101F1000002020202020202063
:104E200020000000000000000000000001FF212120
:104E30002121F9030400101F101010101018040095
:104E4000001010F04020101030000010101F101043
:104E500000000000001010F0402010103000001082
:104E6000101F10100000000001FF4140404041FFB2
:104E70000100101F10000000101F10000000101390
:104E8000F30000000000000010101F1010000000D0
:104E90000000E010101010F0100000609D8A8A8A57
:104EA0008A91700001FF2010101010E00000101F08
:104EB00010000000101F10000020202020202020C3
:104EC00020000000000000000000000001077980C1
:104ED000008079070100000000071C0700000000A7
:104EE00000001010FE1010100000000000000F1055
:104EF00010080000102310220021084601F062BCB7
:104F000038B50FF2701451EA000213D100250CE0FD
:104F1000012D05D1009400F048F801F053FC04463F
:104F20006D1C022D3FDA002DF2D1009400F005FB3C
:104F30000846F2E7C8B1002935D101280AD104F1A9
:104F40002000009010231022502001F03BFC04F1BF
:104F5000400015E0022826D10094102310220020E2
:104F600001F030FC04F1600019E0E1B101290DD13C
:104F700004F1200000F018F801F024FC04F1800096
:104F8000009010231A46002108460AE002290AD19F
:104F9000009400F0D2FA01F015FC04F1A00000F03A
:104FA00003F801F00FFC31BD009010231022002106
:104FB0005020704770B582B0044650250E01F6B2FD
:104FC0000EE0102105F1100001F023FC009400F028
:104FD000B4FAE8B201F0F6FB103D192001F0B4FD7F
:104FE000B542EEDA73BD2DE9F0411F48B0F91280E9
:104FF0001F480078012803D1414600F0F1FC8046AB
:105000000FF2700400212046FFF7D4FF4FF47A77A7
:1050100098FBF7F6F6B20FF2C065012105EB4610DA
:10502000FFF7C8FF07FB1688642798FBF7F6F6B270
:10503000022105EB4610FFF7BDFF032107FB168099
:105040000A2290FBF2F0C0B205EB4010FFF7B2FF6E
:10505000042105F5D070FFF7ADFF052104F1200014
:10506000BDE8F041A6E700007402002054310020A2
:105070001C030020808040402020101008080404F9
:10508000FE000000000001010202040408081010E4
:105090003F0000000000FE0404080810102020401B
:1050A0004080800000003F10100808040402020144
:1050B00001000000008080C0C06060303018180C13
:1050C0000CFE0000000101030306060C0C1818304A
:1050D000307F00000000FE0C0C181830306060C0FB
:1050E000C080800000007F303018180C0C060603CA
:1050F000030101008080C0C0E0E0F0F0F8F8FCFCA3
:10510000FE00000000000101030307070F0F1F1F2F
:105110003F0000000000FEFCFCF8F8F0F0E0E0C00A
:10512000C080800000003F1F1F0F0F07070303010F
:10513000010000002DE9F0411318DFF82482DFF8A8
:10514000101D8D785DB90125CD7000250D710825E4
:105150004D7100250D704D7001258D7028E0CD78C2
:1051600025BB0E794F7906EB000EAE449EF833E076
:1051700005EB080484F8C0E002EB050EC644F41801
:105180002C1994F833408EF8C0406D1CEDB2AF423C
:10519000E9D27D1C4D71761E0E71EDB20B2D05D13D
:1051A0000A20487100200871012025E00D7925BBF7
:1051B0000125CE784F7911E006EB050EC6442C1878
:1051C00094F833408EF8C04006EB020EAE44C6445D
:1051D000EC1894F833408EF8C0406D1CEDB2BD421F
:1051E000EAD3781E4871721CCA70C0B228B9012077
:1051F0004871092008710020C870BDE8F08110B521
:10520000002100220123934003405400042AB9BF27
:10521000C4F10704A340E41FE3405918C9B2521C6B
:10522000082AEFDB084610BD2DE9F44F82B0824614
:105230005FEA0308DFF8185C0AD1287828B900264D
:105240000027012028706E700CE0AE686F6910E0D6
:10525000B8F1010F0BD1687830B90026002728700B
:1052600001206870AE7004E0EE68AF6901E02E695D
:10527000EF6900249DF80800484340000090DFF8E3
:10528000E09008E014F80A00FFF7B9FF04EB090109
:1052900081F8C000641C00988442F3D300229DF87A
:1052A0000800DFF8B01B03E09DF8083002EB430272
:1052B000009B9A422FD200240AE021F81EA031F868
:1052C0001EE04FEA1E2A83F8C0A08CF8C0E0641CE0
:1052D0008442E9D21318E31803EB090C02EB040E25
:1052E0000EEB090393F8C0A09CF8C0B04BEA0A2A61
:1052F00021F81EA0B8F1010F06D1002E14BF2AFA22
:1053000006FA0AFA07FAD8E7002F0CBF0AFA06FADB
:105310002AFA07FAD1E7002408E004EB090A9AF810
:10532000C000FFF76CFF8AF8C000641C009884423C
:10533000F3D31FB9102E08D1002610277F1EB8F115
:10534000000F04D1AE606F6108E0761CF7E7B8F19A
:10535000010F07BFEE60AF612E61EF61BDE8F78F0F
:10536000000000202DE9FD4E81B08946DFF81808C5
:10537000B0F91210DFF8E45A2878012802D100F0C1
:105380002FFB01460A2091FBF0F109B2642291FB48
:10539000F2F6F6B202FB161393FBF0FA5FFA8AFA02
:1053A00002FB161100FB1A10C0B2009068780128A9
:1053B00003D1E8610020286206E0022805D1002020
:1053C000E86110202862002068700020A8610FF2B8
:1053D000083405E0FFF713FF8BF82001781CA86163
:1053E000AF69DFF87CBAB7EB490F1FDABB4404EBB7
:1053F0004610385CFFF703FF8BF8C00004EB4A103F
:10540000385CFFF7FCFE8BF8E000009804EB4010DE
:10541000385CFFF7F4FE8BF8000138192978012970
:105420000CBF90F8E00190F8A001D3E79DF80400CC
:10543000C0F1030009FB00F04300E869296ADFF8C6
:10544000142A01E003EB4903062606FB09F6B342E2
:105450002BDA002609E022F81E4032F81E703C0AC2
:105460008AF8C0408CF8C070761C4E45EADA03EB2F
:10547000090AB2440AEB0B0C03EB060E0EEB0B0A07
:105480009AF8C0409CF8C07047EA042422F81E40F5
:105490009DF8087027B9002914BFCC408440DAE792
:1054A00000280CBF8C40C440D5E700201AE006EB72
:1054B0000B0494F8C000FFF7A2FE84F8C00094F833
:1054C000E000FFF79CFE84F8E00094F80001FFF78D
:1054D00096FE84F8000194F82001FFF790FE84F80E
:1054E0002001701CA861AE69B6EB490FDFDB0BF140
:1054F000C0000121A96100F01FF8A8690007000E93
:1055000001F060F9A969491CA9610529F3DBE86983
:10551000296A50EA010202D019B9102804D10020EA
:1055200005E0481E286201E0401CE861012004B04B
:10553000BDE8F08E01EB40100090102310220021F6
:105540007047F8B504460D46DFF818691421304657
:1055500001F0D2F80FF26C0724B900230A220121CE
:10556000384606E0012C07D101230A22012107F168
:105570002000FFF759FE06E0022C04D10A22012187
:105580003846FFF7D7FD009610230A220021562047
:1055900001F018F90FF2D40400F096FE042803D1AC
:1055A00004F10C00009005E0002D06BF07F1140087
:1055B00000900094102306220021502001F002F9EF
:1055C000F1BD000010188CC66363C68C18104263CE
:1055D00031180C0C1831634200F01E1FF00000FF60
:1055E0008080FF0042C68C183030188CC6420818E4
:1055F0003163C6C6633118088C8CC6C68C8CC6C68F
:105600008C8C31311818313118183131008C8C8C58
:105610008C8C8C8C8C8C8C8C8C8C8C0000313131F3
:1056200031313131313131313131310080C060308F
:1056300098CC66333366CC983060C08088CC6633B3
:10564000190C060303060C193366CC88113366CC9B
:10565000983060C0C0603098CC6633110103060CEE
:10566000193366CCCC6633190C06030100F0FEFF3B
:10567000F000007F7F7F7F00FF0FE1E00FFFFF80E2
:10568000BFBF80FF38B50C46451EEDB2082D0BD3C9
:10569000002509E03638C0B20FF23C01FFF74AFF9F
:1056A000280100F07CF96D1C207898B114F8010BEA
:1056B000202808BF0A20EFD02D2808BF0C20EBD0EF
:1056C000A0F130010A2938BF3038E4D3A0F14101FC
:1056D0000629DFD331BD0000000000F8FE03010100
:1056E0000103FEFCF00000000000003F7FE080802E
:1056F00080C07F3F0700000000000008040406FF90
:10570000FF0000000000000000000000808080FF1B
:10571000FF808080000000000000000607010101FA
:1057200081C37F3E00000000000000E0F0D8CCC63E
:10573000C3C0C0E0000000000000000607818181B6
:10574000C1633F1E00000000000000E0C0808081B7
:1057500081C37F3E0000000000000000C060380CE4
:10576000FFFF00000000000000000607050404849D
:10577000FFFFC48406000000000000FFFF83838356
:105780008383830300000000000000E0C08080806D
:1057900080C17F3F08000000000000E0F89C8EC23E
:1057A000C3C18181000000000000003F7FC08080F5
:1057B0008080C17F3F0000000000000F030303034F
:1057C00083E33B0F030000000000000080E0781E30
:1057D00007010000000000000000187E7EC38181E8
:1057E0008181677E3C00000000001C7EFFC180803C
:1057F0008081E37F3C000000000078FEC6030101C9
:1058000001039EFCF000000000000001018383C33F
:1058100061713F0F01000000000000000000000067
:105820000000000000000000000000000000000078
:105830000000000000000000000000000000000068
:10584000F000000000000000000001010101010162
:105850001F01010101010100000000000000000023
:105860000000000000000000000101010101010131
:1058700001010101010101000E11110EE0F80C06F9
:105880000301010101021E00000000000F3F70C073
:105890008080808080402000000000000000C0C0A8
:1058A000C0C0000000000000000000000000303018
:1058B000303000000000000008142214080202FE2C
:1058C00006020202C202061E00000000008080FFE5
:1058D0008181010103000000C03008040402FAAA1B
:1058E000FA0204040830C0000718204058A4DBDE88
:1058F000DBA4584020180700F8B504460D460026E2
:105900000FF284570DE0142101FB0070009010236A
:105910000A220021F6B20A2000FB064000F03FF800
:10592000761C287888B115F8010B432808BF0B2096
:10593000E9D0452808BF0C20E5D0A0F130010A29A4
:105940003ABF3038C0B20A20DDE7F1BDF8B50446F1
:105950000D4600270FF234660BE006EB8000009046
:10596000082304220021FFB204EB870000F017F89F
:105970007F1C287888B115F8010B782808BF0B2008
:10598000EBD0562808BF0D20E7D0A0F130010A293E
:105990003ABF3038C0B20A20DFE7F1BD7043C0B271
:1059A00000F010BF38B504467748B0F91450B0F98C
:1059B0001210DFF8A804007801280BD100F010F8CD
:1059C000002C0CBF2918411B09B20120BDE834404E
:1059D000FEF7C6BB0CB9681832BD481B32BD29465C
:1059E0000020FEF7BDBB70B504460D466648B0F911
:1059F0001200DFF868140978012902D10146FFF787
:105A0000EFFF4FF47A7190FBF1F2642390FBF3F611
:105A1000B6B24DB9201890FBF3F390FBF1F080B2D1
:105A200092B2904209D10AE0001B90FBF3F390FB85
:105A3000F1F080B292B2904201D0032070BD9BB2CF
:105A4000B34201D0022070BD012070BD00000000F3
:105A500085310020F8B5DFF804444B4DB5F914004A
:105A60000A2804BF0120A081DFF8FC63F068002849
:105A700000F08980606938B10020606100F0ABFA05
:105A800000F016FFFFF7AFFA00F09FFA40282DD084
:105A9000B0F5807F58D16089B5F9121088421EDABE
:105AA000012060700121A88AFFF79DFF074600F0E2
:105AB0006DF80028FBD10120FFF774FF6882608930
:105AC000B5F912108142B8BF68820220607000F000
:105AD0005DF80028FBD100210120FFF711FAB5F98C
:105AE0001200618988422FD101212AE0B5F9120004
:105AF000218988421FDA012060700021A88AFFF7FF
:105B000072FF0746002200F042F80028FAD1FFF7A2
:105B100049FF68822089B5F912108842B8BF6882AF
:105B200002206070002200F032F80028FAD1002133
:105B30000220FFF7E5F9B5F912002189884203D167
:105B400002210020FFF7DCF940F2051700F03DFAD2
:105B500080B1A08940B1F168B94205D332214143F7
:105B60000A31A982401CA0814FF49670F060002099
:105B700000F02EFAA08930B1F068B84203D20A20B2
:105B8000A8820120A081F1BD740200200122102111
:105B90003846FFF7E7BB00002DE9F0474FF00A0950
:105BA000B14EAE4CB14F00F08FFB401E07286BD8B2
:105BB000DFE810F00800C7004600F90093009600E7
:105BC0004B01E9006069012801D100F059F9207901
:105BD00050B900F084FE00213846FEF725FDFEF79F
:105BE000FDFD0120207107E0B06928B9706918B186
:105BF000FEF723FB3220B061706978B9608A401CDF
:105C0000608280B2322805D1208A411E2182C0B232
:105C100000F086FD208A08B900F095FD01F0DBF95F
:105C2000012803D000F0D1F900282DD0F869706167
:105C30003320208200F074FDBDE8F04700F07DBD08
:105C4000606928B90120606100F0C5F900F030FEFC
:105C500000F042FB8046E078B8F1010F06D008B1B1
:105C600000F026FE0020E081E07023E0E1894B296E
:105C700008BF002804D100F01BFE0120E07000E006
:105C8000C0B1B06908B13068DFE000F029FB05461B
:105C9000B7F912A02078012806D1FFF7A0FE05462B
:105CA0005146FFF79DFE824651462846FEF720FEEC
:105CB0003220B0613068002804BFE0780028E3D1CA
:105CC00000F00EFB0546B7F91200A842B4BF291A2E
:105CD000411B122900DA0546A6E0BDE8F047B9E607
:105CE0006069012801D100F0CBF800F06EF948F2AC
:105CF0004001401A07D0C03802D0403806D007E033
:105D0000012060710BE0022060710DE0607101E024
:105D1000607910B9FEF780FD0AE0012802D100F099
:105D2000DEFD05E0022803D101213846FEF77CFCA8
:105D30006079032804D0002000F04AF90320607144
:105D400083E0606910B9012000F09BF8484F387873
:105D500028B1FEF783FE0020387000F0A9FDB0697D
:105D6000002872D100F02FFA05462078012802D1D0
:105D7000FFF735FE054600F07DF837A10620FFF756
:105D800081FC14200DE0606910B9012000F079F861
:105D90006069012804BFB069002856D1FEF742FFB0
:105DA0003220B06151E000F09BFA0546B7F91000CF
:105DB000A842B4BF291A411B1329B8BF054600F0F9
:105DC0008BFA8046E078B8F1010F06D008B100F0F8
:105DD0006FFD0020E081E07020E0E189322908BFFA
:105DE000002804D100F064FD0120E07000E0A8B1BB
:105DF000B06900287FF447AFB7F910A020780128D8
:105E000006D1FFF7ECFD05465146FFF7E9FD824656
:105E100051462846FEF76CFD3220B06130680028FC
:105E200004BFE078002810D12078012802D1FFF7C4
:105E3000D6FD054600F01EF801F0CAF801464046BE
:105E4000FFF77FFBE089401CE081BDE8F0870000A0
:105E500064030020942E0020460000001C03002054
:105E600000000020C0000020CC3000207402002080
:105E70001C04002095FBF9F109B20120FEF79FB93F
:105E80000020606100F014BD00E018040404041850
:105E9000E000000F3040404040300F000000080894
:105EA000FC0000000000000040407F404000000077
:105EB00000780404040404887000006050484442E0
:105EC00041407000003804048484C8300000003869
:105ED0004040404040211E00000080601008FE004D
:105EE00000000007040444447F4444000000FC0414
:105EF00084848404040000384141404040211E0055
:105F000000C03088848484041800000F3140404071
:105F100040211E00001C04048444340C04000000D2
:105F2000007E010000000000007088040404048862
:105F30007000001C2241414141221C0000F0080475
:105F400004040418E00000304142424222190700D4
:105F50000000000000000000000000000000000041
:105F6000000000001C1CC0300804040408300000BD
:105F700007182040404020101C120C0202FE8282B2
:105F8000E20200000000407F400003000038443877
:105F900000087C0000645448004454280030287CE9
:105FA000005C5434003854200004740C0028542839
:105FB00000185438000000000050205000384444BD
:105FC000001C601CA84800787047A84840687047CB
:105FD000A64948607047A54908707047A2484078B4
:105FE000704738B500240A25A148C06C80B2041956
:105FF0006D1EF9D10A20B4FBF0F148439221B0FBA9
:10600000F1F0401D32BD10B50446FFF7EAFF002154
:106010000FF2AC2232F8113098420AD2491C0429FE
:1060200007D20229F6D1002CF4D0924B1B6898427B
:10603000F4D3481C10BD00208F490A68D243920552
:1060400048BF4FF480700968C943490648BF40F013
:10605000400090B185490A78012A04BFCA6882428B
:1060600007D18A68521C8A60162A06D340F4004081
:1060700002E000228A60C8604860704770B57F49BE
:106080004A68D3089CB2C5000E781EB94D60012045
:10609000087009E0844234BF041B241AA4B23D2CCA
:1060A0003CBF8018C51A4D60E80870BD70B500206F
:1060B00000F03DFD724810210160192000F048FDFC
:1060C000704D0A202880002000F02CFD69684118DE
:1060D000AA68824238BF0246AA60EA68904288BF36
:1060E0001046E8602E88012E0CD1A868081AE968CD
:1060F000401AC008FFF7C2FF0446002141F2883071
:10610000E860A9606960701E288080B20028DAD13A
:10611000204670BD5C490A7822B9C000486001225F
:106120000A7007E04A688018931002EB5372A0EBE4
:10613000E2004860811000EB5170C010704770B5EC
:106140000024504D0A202880012000F0EBFC296932
:1061500041186A69824238BF02466A61AA69904260
:1061600088BF1046A8612E88012E11D16869081ACF
:10617000A969401AC008FFF7CDFF40F6E441484343
:10618000000BA0F5FA74002141F28830A861696122
:106190002961701E288080B20028D5D1204670BDAC
:1061A00010B5FFF783FF0446FFF7C9FF2E49B4F58A
:1061B000C87F05D2B0F5967F02DA8C60012000E03E
:1061C0000220087010BD70B50446FFF76FFF05464A
:1061D000FFF7B5FF24494A8840F6FF739D4202D17C
:1061E0008B885B1C07E00023A5F6D966B6F5937F84
:1061F00034BF521C00224A808B808A884B883C2AFC
:1062000002D353B9032207E01AB90A2B28BF02228E
:1062100002D20A2B01D201224A70A4F57A72962387
:106220005A4340F6B83392FBF3F250328968B4F522
:106230007A7F08BF0A3A00D01CB18B18AB42B8BFB6
:10624000AD1AB0F5C87FC8BF4FF4C87040F226320F
:10625000691A4FF47A73504303FB010090FBF2F08C
:1062600000B270BD000000001C04002010310020AE
:10627000002801404C04002008080140443100205F
:10628000140C0140840300204C31002010B504465A
:1062900045F2555000F044FF032000F044FF0A206F
:1062A00060434003000C00F041FF00F042FF00F0AB
:1062B00045FF012010BD80B500F03BFF012002BD6D
:1062C0002C0196005A002800DFF8C40300787047BC
:1062D000DFF8BC1308707047DFF8B403808B704799
:1062E000DFF8AC03B0F91E00704720220FF2E8314E
:1062F000DFF8A00300F02EBFDFF8940300218180B7
:10630000C180018141818161C1600F21018202212F
:10631000418201218182704730B50022DFF870137D
:10632000C880B1F904300446181B08818D6900B299
:10633000B0F5FA7FBCBF01224519A34205DAE31A82
:106340001BB2152BA4BF002500228D611F28B4BFEE
:10635000002301230C8A4D8A6A438D696A4300FB3E
:1063600004228C8AB1F90A50451B6C4303FB0422BA
:106370004881012AB8BF002205DB41F271708242D8
:10638000A8BF41F27072CA6090B230BDC04A91801D
:10639000884204DA091A122904DB002105E0411AB7
:1063A000132901DA022100E001219183B4E770B5DD
:1063B000B94CB74D287801280ED0022800F0FC8097
:1063C000032849D0042800F09880052800F0E380D5
:1063D000082800F0298170BDFFF7F7FD402811D093
:1063E000B0F5807F18D16878012817D000F070F9D7
:1063F000042811DA03202870002028842060A0617E
:10640000606109E06878012808D002202870002027
:10641000A0610120FFF7DFFD687820B1E06910B9C5
:106420006870FFF7D5FD00F053F940B9FDF780FE25
:10643000012804BF0020FDF77FFE08202870A878FF
:10644000042818BF012806D0286C60610020FFF7DF
:10645000BFFD0120A87070BDFFF7B7FD48F24001F5
:10646000401A04D0C03802D040380AD00FE000F003
:1064700020F905202870002060604FF4FA70E06079
:1064800005E000F054FB00F020F900F015F900F0F1
:106490001FF9042805DB00F00CF900F016F900F0F4
:1064A0000BF9B5F93660606848B93046FFF78BFEE6
:1064B00000F0FAF800B200F03AFB1E20606000F035
:1064C0003AFB00B9606000F086FD98B9288C18B9D5
:1064D00001202884E86BA060A06800284DD1A88323
:1064E000A06100F024FB0020FFF772FD286C6061C2
:1064F000042041E0002028843FE0B5F93460B5F97C
:106500003610B142B8BF0E46606848B93046FFF752
:106510005AFE00F0C9F800B200F009FB1E206060CE
:1065200000F0D6F804280DDB00F0C3F800F0CDF839
:1065300001202870286C60610420A8700120687018
:106540003220E061606958B900F0F1FA00F0BDF85E
:1065500001206870C820E0610420A8700120287024
:1065600000F039FD012802D0FFF72FFD28B10020EF
:10657000A0616061288403202870FFF72FFD0228A6
:1065800008D3FDF7D5FD012804BF0020FDF7D4FD99
:106590000820287070BDE068002877D13F4E0120A8
:1065A000307000F0ACFF00F0FDFF002030700320E1
:1065B00028700020206070BDE06920B10020BDE897
:1065C0007040FFF705BDFFF700FD48F24001401A9B
:1065D00012D0C03810D040380BD1FFF7E1FDFFF7E3
:1065E000F1FC012803D100F08AFF00F0DBFFC82096
:1065F000E061E878002849D00020E87000F097FAC0
:1066000000F066F8042802DB0620287003E0012071
:10661000287000F05AF80220A8700120687000F07D
:1066200054F83220E06170BDFFF7D8FC801E0128CD
:1066300003D9801E01280FD921E0B5F93600FFF7F4
:10664000C2FDE883FFF7CAFC012818D10320287097
:106650000020FDF771FD12E000F03AF801280EDB92
:1066600000F036F804280ADA00F023F800F02DF8DC
:10667000012068700220A061A870012028700848DD
:1066800020B100F016F807481021016070BD00002D
:106690005002002074020020CC3000201C04002096
:1066A000376B0008140C0140E8833146B5F91E0031
:1066B0006CE6002000F03BBA012028700320A8708F
:1066C000012068703220E06170470020FFF783BC32
:1066D0000120FFF798BC0000322E3132000000008C
:1066E0000000000000000000D007B80B64000000AC
:1066F00050460000A08C0000002201F039BD50F887
:10670000041B61B150F8042BD30744BFA9F1010366
:106710009A18002342F8043B091FFAD1EFE77047AB
:1067200080B500A90FF2143213680B608DF80300D6
:106730003C22042100F013F801BD00B583B000A88D
:106740000FF2FC2104E000B583B000A80FF2F8219D
:106750000CC90CC03C22062100F001F807BD00A8BE
:1067600001F00CBE10B5A0B00C4640218DF8001011
:10677000411CC9B2012000AA03E014F8013B835474
:10678000401C8842F9DB3C22FFF7E9FF204620B09D
:1067900010BD7CB505460C4600A80FF2B4210CC90B
:1067A0000CC000AEFDF7D8FC01280EBF757105F1D5
:1067B000200070717078201870703C220821FFF75B
:1067C000CEFF73BD2DE9F041044690465818C0B283
:1067D000CE080722114218BF761C811000EB5171C0
:1067E000CA10B0EBC2011ABF501CC5B2D5B2069F89
:1067F00009E031462046FFF7CCFF39464046FFF717
:10680000B1FF0746761CF6B2AE42F2DB3846BDE871
:10681000F08130B5A1B004460D4601A8FFF76CFF2A
:1068200000F059F82A460021E0B2FFF7CBFF00F054
:1068300052F82A460821E0B2FFF7C4FF21B030BD6C
:1068400080B54FF48070ADF8000003208DF8020091
:1068500010208DF8030000A9124801F0CBFD01BD06
:1068600010B5114C4FF4807120464161C0460220A2
:1068700000F06AF94FF4807120460161C0460220A1
:1068800000F062F9094CFDF767FC012803D1C8202C
:10689000E072A120E0743C222E212046BDE8104089
:1068A00001F06CBD000C0140000801409402002082
:1068B00000B5A1B0802101A8FFF71EFF00F00BF882
:1068C000802200F0B1F800F006F88022194600F0AE
:1068D000ACF821B000BD01A80090082370472DE955
:1068E000F041A2B00125002201A90FF26C1000F0C6
:1068F00026FE040000F081802078422804BF6078E2
:106900004D2840F0898094F83600FF2804BF94F8A1
:106910003700FF2804D194F83800FF2808BF00256D
:1069200000F07DF801260F27002000210C2202FB39
:106930000712121992F83E2080234FF0080C03EA48
:10694000020E1DB1BEF1000F0CD102E0BEF1000F2E
:1069500008D00DF1080E86449EF8018046EA08082A
:106960008EF8018000F063F8E9D1491C0C29DDD3D1
:106970007606360E7F1E082FD6DA02A8009008236E
:10698000602200F051F8FFF796FC00F048F801266D
:106990000027002000216FF00B0202FB07121219E2
:1069A00092F8922080234FF0080C03EA020E1DB1EA
:1069B000BEF1000F0CD102E0BEF1000F08D00DF1C6
:1069C000080E86449EF8018046EA08088EF8018089
:1069D00000F02DF8E9D1491C0C29DCD37606360EDF
:1069E0007F1C082FD5DB02A8009008236022082115
:1069F00000F01BF84FF47A700AE00FF26800009084
:106A00001023602200210020FFF7DCFE4FF4FA6023
:106A100000F09AF8FFF74FFC22B0BDE8F0817F212B
:106A20000DF1090001F07ABD00210020CAE6401CEA
:106A3000C0B25B08BCF1010C70470000808180008F
:106A4000808D801480AF0000808D801080AE0000AB
:106A500080B080218020807F4C4F474F494E2020BE
:106A6000424D500000000000C0E0F8F8FCFC7E3E03
:106A70001E1F0F0F0F0F0F0F0F8F8F8F8F8E8E9E7A
:106A80009E8C8C840080C0E0F0F8FCFCF933070F8A
:106A90001F3F7FFFFEFCF8F0E0C000000000008018
:106AA000C0E0F0F8FCFE7F3F1F0FE7F3F9FCFEFEAD
:106AB000FFCFCFCFCFCFCF8F8F8F9F9E1E1C383071
:106AC00000000000E84848EE01031F1F3F3F3E7CE6
:106AD0007878F0F0F0F0F0F0F071737333331F6FEB
:106AE00073797C7E7F7F3F1F0F0F0F0D0C0C0C0CFA
:106AF0000C0C0C0C0103070F1F3F7F7E7C7E7F3F39
:106B00001F0F0703010000000C1C3C3C3C7C7DF97E
:106B1000F1F1F1F3F3F3F3F3F37F7F7F3F3F3F1F97
:106B20001E0C0000DFF8281431F810007047DFF861
:106B30002414C8607047DFF81C04C0687047202127
:106B4000DFF8140401F0EABCDFF80814142202E0B4
:106B5000DFF800140A225043886088680028FCD1BE
:106B60007047DFF8F8134FF400620A614FF4805267
:106B70000A61002808680AD120F4404040F44050DF
:106B80000860086820F4402040F4403009E020F418
:106B9000804040F430400860086820F4802040F4D1
:106BA00030200860704780B501F0BCFC102001F077
:106BB0007DFD012001F074FDDFF8A4034168DFF8DA
:106BC000A42311434160016841F0807101600120FC
:106BD00001F0C1FC012001F0C1FC392001F02FFDC2
:106BE0000028FAD0022001F0BCFC01F0C1FC08280A
:106BF000FBD10121172001F0FEFC012140F20C60C5
:106C000001F002FD0121032001F007FD0120BDE894
:106C1000024001F0B2BC80B501464FF0006001F0C7
:106C2000F8FD4FF4A06001F0C3FD14208DF80000C2
:106C300002208DF8010000208DF8020001208DF85F
:106C4000030000A801F0B9FD01BD38B5C64C4FF6F0
:106C5000FF70E060C5492160C5496160C54DE860CD
:106C6000C54828604FF0883068608020ADF800008B
:106C7000002000F01FF84FF4807000F021F801218F
:106C8000BE4801F020FC102000F01AF80120ADF8F9
:106C90000000002000F01AF80220ADF800000020EB
:106CA00000F014F84FF41070ADF80000482000F028
:106CB00001F831BD8DF8030000A9204601F09ABB10
:106CC000ADF8000003208DF8020010208DF80300BD
:106CD00000A9284601F08EBB2DE9F04190B04FF499
:106CE00020442546A64E304601F0A8FDA548059053
:106CF00097480690002007900220089000200990F5
:106D000080200A904FF480700B904FF480600C90BC
:106D100020200D904FF400500E9000200F9005A9F8
:106D2000304601F0D8FD0121304601F0EFFD964ECE
:106D3000304601F011FE00F05FF84FF46027029733
:106D40000020039002208DF8100000A9304601F0C9
:106D50002CFEDFF83882404601F0FEFD00F04CF8D2
:106D600002970020039001208DF8100000A94046F2
:106D700001F01BFE072302220721304601F059FED5
:106D8000072301220821304601F053FE052301228A
:106D90000921404601F04DFE0121304601F02CFE54
:106DA0000121304601F01FFE0121404601F01BFE8B
:106DB000304601F02AFE304601F02CFE20B1284674
:106DC000451E0028F7D114E0404601F01EFE25467E
:106DD000404601F01FFE20B12846451E0028F7D18D
:106DE00007E00121304601F01BFE0121404601F081
:106DF00017FE10B0BDE8F0810020009001208DF852
:106E000004008DF80500704700B585B04FF4E060D0
:106E100001F0CEFC2F20ADF8040042F20F70ADF867
:106E200008000020ADF80A00ADF8060001A94FF0F7
:106E3000804001F047FE00F061F801F099FE012268
:106E400000F05CF801F08CFE00F058F801F07EFED6
:106E50001C2000F02AF805B000BD1FB54FF4E0601B
:106E600001F0A6FC2F20ADF804003120ADF8080099
:106E70004FF48070ADF80A000020ADF80600444CD5
:106E800001A9204601F01EFE0121204601F070FEFE
:106E900001220121204601F063FE0121204601F07C
:106EA00055FE1D2000F001F81FBD8DF800000020E8
:106EB0008DF8010001208DF802008DF8030000A874
:106EC00001F07BBC80B500F019F801F05BFE0020FA
:106ED000304901EB8002536813B153685B1E536065
:106EE000401C0828F5DB0878401C08700321084284
:106EF00004BFBDE80140FFF79EB801BD01214FF07E
:106F00008040704780B50121214801F03BFE1148C7
:106F1000416811B14168491E4160816811B18168C1
:106F2000491E8160C16802781B4B49B1C168491E86
:106F3000C160002A19BF1021596010211960D24385
:106F4000C16811B9102159600022027001BD000012
:106F50006C31002000310020CC30002004080140BA
:106F6000001002400A8468000008014088888808F0
:106F700083B8BB8B000C01400088834400013000C3
:106F8000080002404C240140002401400028014038
:106F900000040040C8300020100C01400CB41CB5A7
:106FA000044604A80190009401AB0A4600A90748D2
:106FB0007844183001F0FEFD009900220A70002884
:106FC0005CBF0098001B16BC5DF80CFBFF010000C5
:106FD0005148C089704751480088704700B585B056
:106FE0008DF800008DF801101D22022100A801F08B
:106FF000C5F90DE000B585B08DF8000003461D22EF
:10700000012100A801F0CFF943489DF80010017359
:10701000012005B000BD80B500212A20FFF7DEFF6A
:1070200002210E20FFF7DAFF03212A20FFF7D6FF07
:1070300000212B20FFF7D2FF01212A20BDE80440C8
:10704000CCE770B51C460023002500F110069642DF
:10705000A6BFA0F11006B242012301F11006A6421C
:10706000A6BFA1F11006B442012300F1200696420A
:10707000A6BF20388242012501F12000A042A6BF10
:10708000A1F120008442012524480580184670BDE6
:1070900021480178407802E01F480179407940EAB0
:1070A00001200009802903D3C043401C0005000DC6
:1070B000704730B583B0184C06212046FFF71CFB03
:1070C0000020FFF797FFE8B1207B00071AD50120C9
:1070D000FFF790FFB0B1207B8DF80000207000A872
:1070E000417861709DF8021021719DF80310617163
:1070F0000179217240796072FFF7CAFF0546FFF7F8
:10710000CBFF00E0258A00232A460021208AFFF7D2
:1071100098FFE081258237BDEC300020FE30002052
:1071200009490860704709490860704708490860C4
:10713000704705484AF6AA210160704702484CF69C
:10714000CC41016070470000003000400430004036
:107150000830004062B38B0708D0521E11F8013B83
:1071600000F8013B00F024808B07F6D1830740F044
:10717000208000BF103A07D330B4B1E83810103A7D
:10718000A0E83810F9D230BC530724BFB1E808108A
:10719000A0E8081044BF51F8043B40F8043BD20774
:1071A00024BF31F8022B20F8022B44BF0B78037068
:1071B0007047083A07D3B1E80810083A40F8043B92
:1071C00040F804CBF7D25307E4E70268531C03608E
:1071D00011707047F8B56424DFF8B42C0A2308292D
:1071E00012D8DFE801F0051224598191C6CDF100D3
:1071F000017845785D4304FB01518078401841F2E5
:10720000D041401A58431082F1BDDFF8881C09783C
:107210000029F9D1017845785D4304FB015180785C
:10722000401841F2D041401A58435082F1BDC17814
:1072300046788578A1F1300C5FFA8CFCBCF10A0F1E
:107240000CD200784FF47A77664307FB006003FBAB
:107250000500081800F53C57B03718E0A5F13001DB
:10726000C9B20A2909D2007803FB06F104FB001019
:10727000281841F2D041471A09E0A6F13001C9B2FD
:107280000A2904D2007803FB0060A0F504773FB21E
:1072900004FB07F09061F1BDC1788578A1F130065B
:1072A000F6B20A2E0DD206784FF47A774078604312
:1072B00007FB060003FB0500081800F53C57B03734
:1072C0000DE0A5F13001C9B20A2908D20178407851
:1072D000584304FB0100281841F2D041471A3FB23D
:1072E00004FB07F0D061F1BD46780778A6F13000C5
:1072F000C0B20A283ABF03FB0760A0F50477303F0D
:1073000003FB07F09082F1BDC17846780778857855
:10731000A1F13000C0B20A280CD24FF47A7004FBFD
:1073200006F200FB072003FB0500081800F53C5798
:10733000B03717E0A5F13000C0B20A2808D203FB2D
:1073400006F004FB0700281841F2D041471A09E073
:10735000A6F13000C0B20A283ABF03FB0760A0F5CF
:107360000477303F3FB203FB07F0DFF82C1B0860C7
:10737000F1BD00783038C0B2BDE8F240FCF7E0BEA5
:10738000467807788578A5F13000C0B20A2808D27F
:1073900003FB06F004FB0700281841F2D041471A0E
:1073A00009E0A6F13000C0B20A283ABF03FB07602B
:1073B000A0F50477303FDFF8DC0A007858B9DFF831
:1073C000DC0A3FB20760F1BD00783038C0B2BDE8DA
:1073D000F240FCF7BDBEF1BD30B508291ED8DFE88C
:1073E00001F005051F334252876187008378A3F1BE
:1073F0003001C9B20A293FBF4478A4F13001C9B2B3
:107400000A297AD20178A1F13100C0B2042874D2DD
:10741000342903D1302C08BF302B6ED1012030BD70
:10742000C1783039C9B20A2921BF81783039C9B24F
:107430000A29F3D341783039C9B20A295DD20078DC
:107440003638C0B2042828E0C1783039C9B20A29D8
:10745000E4D381783039C9B20A294ED20078333862
:10746000C0B2072819E0017840783038C0B2062849
:1074700004D2A1F13000C0B203280EE03529CDD2EC
:1074800031293AD1CAE7017840783038C0B20328B0
:1074900005D2A1F13000C0B20A28BFD32DE03929AE
:1074A000BCD22AE04478017883780A20A3F1300521
:1074B000EDB20A2D08D26425604305FB01001818BF
:1074C00041F2D041401A0AE0A4F13003DBB20A2BAA
:1074D0003ABF00FB0140A0F50470A1F13000012A81
:1074E0009CD180B2DFF8B4190968884296D004E0D4
:1074F0000178312918BF302990D0002030BD10B557
:107500004FF41852DFF89819DFF89809FFF732FEA8
:10751000DFF89409002100220B460C461EC010BD66
:1075200010B5002208E0135CA3F16104E4B21A2C48
:107530003CBF203B1354521C8A42F4DB10BD2DE9A2
:10754000FF4180460E46DFF85C4904F200471025F3
:107550000B22394601A8FFF7FDFD0B2101A8FFF71B
:10756000DFFF0B22414601A802F08CF998B907F120
:107570001C00017831704178717007F11A0000A980
:1075800002780A7042784A70BDF8000004EB40208F
:1075900000F5007003E020376D1ED9D1002004B043
:1075A000BDE8F0812DE9F04FADF5137D0024ADF875
:1075B000004000260FF6141700AA0DF1020138460C
:1075C000FFF7BDFF0190DFF8DC9809F20040029060
:1075D000DFF8D4A80198002800F0078140F23B11A1
:1075E00043A8FFF789F8DFF8C4784FF400720199D7
:1075F0003846FFF7AFFDA0460025232043A900FB36
:10760000081B05E0232D3CBF05F80B006D1C761C04
:10761000384602F069F9864206D2F05D0D2802BFB5
:10762000F11949780A29EDD105F80B40B61C08F18B
:107630000108B8F1090FDFD30027DFF854880AEBFF
:1076400087056E69304602F04FF9232143AA01FBFA
:10765000072B02463146584602F014F9002875D12E
:10766000686902F041F9064604E0202818BF3D2869
:1076700066D1761C00F0DAFA864261D216F80B0069
:10768000A0F13001C9B20A29EFD2302801D1062F6A
:1076900056D15E440022F9B23046FFF79DFE002825
:1076A0004ED0F9B23046FFF795FD2FB9B8F910006A
:1076B00000F0A9FA43A840E0012F05D1B8F9120063
:1076C00000F09BFA4BA81DE0022F06D1D8F8180055
:1076D00000F087FA0DF5A9702FE0032F05D1D8F837
:1076E0001C0000F078FA5DA81DE0042F05D1B8F960
:1076F000140000F07CFA66A81FE0052F04D100F00A
:1077000088FA6EA8C01C18E0062F07D1FCF71CFDF4
:1077100002460FF61C010DF5EF700EE0072F04D1A5
:1077200000F054FA80A8401C07E0082F15D1FCF7A0
:1077300013FD02460FF6140189A8FFF72FFC0CE099
:1077400000F074FA0146584600F0E8FEAC6B2046A3
:1077500002F0CAF800F065FA01247F1C092FFFF43B
:107760006EAF002C02BFDFF82C07007800283BD05A
:10777000FE2103A8FEF7C0FF0027232043A900FB3A
:10778000071103A802F0CBF80AEB8700C16D03A82C
:1077900002F0C5F87F1C092FEFD303A802F0A4F86C
:1077A0000246BDF8000009EB4010FF2A80F81C24B7
:1077B00000F21C4094BF0021110A41700198029907
:1077C000401A00F50070411200EB91508012012127
:1077D00000F80A1003A802F087F8024603A90198EE
:1077E000FFF7B8FC00F067FA5DE00FF2707500AAD1
:1077F0000DF102012846FFF7A2FE09F21644DFF858
:10780000B086D0B1FE22014603A8FFF7A3FC00F02A
:107810005CF809F584600ECD0EC0FE2203A909F5BF
:107820000060FFF7A7FC6675C4F82080032089F884
:107830003A04FE2089F83C0401E000F046F8029882
:107840000ECF0EC00FF62017062239464846FFF726
:1078500091FC0622394609F50070FFF78BFC0027E2
:107860000AEB8705D5F838B000F0E0F900F032F8FF
:10787000A86B02F039F88619D5F85CB000F0D6F99B
:1078800000F028F8E86D02F02FF886197F1C092F08
:10789000E6D3002089F80B04C9F816840220207171
:1078A000A67100F031FA42F60C0000EB090100224B
:1078B000CA760A774A7640F8092000208860086175
:1078C000C8600DF5137DBDE8F08F4FF418514846A0
:1078D000FEF712BF0246594606EB090000F5C060EC
:1078E000FFF738BC2DE9F04FADF5157D054689460B
:1078F000DFF8B445DFF8AC85B9F5805F07D100F05B
:1079000098F9002816D000F099F940460EE0B9F534
:10791000205F10D108F500764FF40072314601F077
:10792000B1FF002806D000F089F93046FFF712FCBD
:107930000120207044E1B9F5804F23D108F20048BE
:1079400000F077F90028F5D000F078F94046FFF70D
:1079500001FC012060704FF010080FF270560C22ED
:10796000294600A8FFF7F6FB0B22314600A801F0DC
:1079700089FF10B9A87E208222E12035B8F10108E4
:10798000EDD11DE1A9F50047B7F5005FF9D809EB86
:107990000800A0F5F4464FF400723146284601F085
:1079A00071FF20B100F04AF93046FFF7D3FBA9F58B
:1079B000FC4004EB9029780A801C218A884240F020
:1079C000F980002640F23B1145A8FEF795FEDFF84E
:1079D000DC7400F033F93846FFF7BCFB00254FF0AC
:1079E000000A232045A900FB051B07E0BAF1230F7D
:1079F0003CBF0AF80B000AF1010A761C384601F078
:107A000073FF864206D2F05D0D2802BFF119497856
:107A10000A29EBD100200AF80B00B61C6D1C092DB9
:107A2000DDD30027DFF8685404EB8706D6F814A0EE
:107A3000504601F059FF232145AA01FB072B0246BE
:107A40005146584601F01EFF002840F09F807069A3
:107A500001F04AFF064604E0202818BF3D280FD158
:107A6000761C00F0E3F8864280F0AC8016F80B003C
:107A7000A0F13001C9B20A29EED2302802D1062F76
:107A800040F0A0805E440122F9B23046FFF7A4FC2A
:107A9000002800F09780F9B23046FFF79BFB00F01A
:107AA000C5F80146584600F039FD2FB9B5F9100068
:107AB00000F0A9F845A83EE0012F05D1B5F9120064
:107AC00000F09BF84DA81BE0022F05D1A86900F03B
:107AD00088F80DF5AD702EE0032F04D1E86900F0B1
:107AE0007AF85FA81DE0042F05D1B5F9140000F065
:107AF0007EF868A81FE0052F04D100F08AF870A86E
:107B0000C01C18E0062F07D1FCF71EFB02460FF23F
:107B100020410DF5F3700EE0072F04D100F056F868
:107B200082A8401C07E0082F07D1FCF715FB02468E
:107B30000FF218418BA8FFF731FA7F1C092FFFF4D1
:107B400073AFFE2105A8FEF7D7FD0027232045A926
:107B500000FB071105A801F0E2FE04EB8700C16DF0
:107B600005A801F0DCFE7F1C092FEFD305A801F06A
:107B7000BBFE0246208A08EB4010FF2A80F8DC2377
:107B800000F5777094BF0021110A06E0B46B20461F
:107B900001F0AAFE00F045F814E041704FF40072C5
:107BA00005A908F5C060FFF7E5FA0120607089F8C3
:107BB000010005E00120607089F8010000F07BF809
:107BC00000F079F80DF5157DBDE8F08FB348026837
:107BD0000FF26C3170476421B0FBF1F20FF22431E7
:107BE00070476421B0FBF1F20FF2083170470A21AF
:107BF00090FBF1F20FF21C3170470A2190FBF1F279
:107C00000FF2E42170470A2190FBF1F20FF2C82134
:107C10007047A14800680A21B0FBF1F20FF2003171
:107C20007047024621465846FFF794BA584601F07D
:107C30005BBE4FF40072414601F024BE4FF4007267
:107C40002946704738B504460D46C046C04625B99A
:107C50004FF400720FF2103121E09249B5F5805FC8
:107C600008BF4FF400721AD0B5F5205F04D14FF46D
:107C7000007201F5007112E0B5F5804F04D14FF4A8
:107C8000007201F580610AE0A5F50040B0F5005FE3
:107C90000AD84FF4007205F1006101F58C412046CD
:107CA000BDE83840FFF756BA4FF400712046BDE8F2
:107CB000344000F033BCF8B500F002FD00207A49F2
:107CC000425CD2B1002242548402754D281901F061
:107CD00046FE74482618002736F8021B3819281863
:107CE00001F02CFE042803D000F0F4FC0420F2BDC7
:107CF000BF1CB7F5806FEFD302E0401C1028DFD324
:107D000000F0E8FC0020F2BD70B5664C00F0D8FC35
:107D10000025634E06EB852001F021FE6D1C092D28
:107D2000F8DB002534F8021B701901F007FE042867
:107D300001D0042070BDAD1CB5F5185FF2DB00F07A
:107D4000C9FC002070BD2DE9F04142F61804554DE4
:107D50006619584F327A2AB9400238604802786072
:107D600001203072307A012831D1605978B905F597
:107D7000185839684046FFF765FF40229821404671
:107D800001F002FE4FF4E070605140200CE0402210
:107D90009821B868401900F5185001F0F5FD6059B8
:107DA00040386051B8684030B8604021012001F08F
:107DB00096FE3021012001F01CFE3868403038600A
:107DC0007868403878603C488168403981607868DC
:107DD00038B96051B860386038480321017000201C
:107DE0003072BDE8F0812DE9F04142F61C042D4DC2
:107DF000625940326619324F33792BB940023860EC
:107E00004802786001203071307901282FD100209C
:107E10002C490AE05B1903F5185310F801C083F8E8
:107E200000C0401C63595B1C635163599342F1D3FA
:107E3000DFF89480B8F800003968411839607A6832
:107E4000101A7860C00507D100206051A1F50071BB
:107E500005F51850FFF746FD17488168B8F800206F
:107E6000891A81604FF44051022001F0D3FD7868F7
:107E700000281EBF11480078042806D10020605158
:107E8000012101F093FF00203071BDE8F081000076
:107E9000740200201C0400204C0400202404002054
:107EA00000C0000858040020D0010020942C0020BD
:107EB000188DDD403031002020310020943000202A
:107EC0003C3100203430002096300020434F4E4695
:107ED0004947202054585400545F5374616E6462C3
:107EE000793D256400000000545F576F726B3D259B
:107EF00064000000576169745F54696D653D2564D5
:107F00000000000049646C655F54696D653D25643F
:107F100000000000545F537465703D25640000004C
:107F20005475726E5F4F66665F763D256400000093
:107F300054656D7053686F77466C61673D256400CA
:107F40005A65726F505F41643D2564004C656674EC
:107F500048616E6465643D25640000004C4F474FE6
:107F6000494E2020424D5000EB3C904D53444F531E
:107F7000352E3000020108000200025000F80C000B
:107F8000010001000000000000000000000029A224
:107F900098E46C4E4F204E414D4520202020464114
:107FA00054313220202033C98ED1BCF07B8ED9B819
:107FB00000208EC0FCBD007C384E247D248BC199EE
:107FC000E83C01721C83EB3A66A11C7C26663B07E9
:107FD000268A57FC750680CA0288560280C3107331
:107FE000EB33C98A461098F7661603461C13561ED3
:107FF00003460E13D18B7611608946FC8956FEB874
:108000002000F7E68B5E0B03C348F7F30146FC1133
:108010004EFE61BF0000E8E600723926382D741765
:1080200060B10BBEA17DF3A66174324E740983C7A3
:10803000203BFB72E6EBDCA0FB7DB47D8BF0AC98C3
:1080400040740C487413B40EBB0700CD10EBEFA0C6
:10805000FD7DEBE6A0FC7DEBE1CD16CD19268B5521
:108060001A52B001BB0000E83B0072E85B8A56245C
:10807000BE0B7C8BFCC746F03D7DC746F4297D8C4A
:10808000D9894EF2894EF6C606967DCBEA030000EA
:10809000200FB6C8668B46F86603461C668BD06612
:1080A000C1EA10EB5E0FB6C84A4A8A460D32E4F7C1
:1080B000E20346FC1356FEEB4A525006536A016A2D
:1080C00010918B4618969233D2F7F691F7F64287C5
:1080D000CAF7761A8AF28AE8C0CC020ACCB8010242
:1080E000807E020E7504B4428BF48A5624CD13614F
:1080F00061720B40750142035E0B497506F8C3417E
:10810000BB000060666A00EBB04E544C4452202025
:10811000202020200D0A52656D6F766520646973FA
:108120006B73206F72206F74686572206D6564696F
:10813000612EFF0D0A4469736B206572726F72FFC6
:108140000D0A507265737320616E79206B6579201A
:10815000746F20726573746172740D0A0000000000
:10816000000000ACCBD855AAF8FFFFFFFFFF0000CE
:1081700000B500BF130096469446103928BFA0E80A
:108180000C50FAD85FEA417C28BF0CC048BF40F8C9
:10819000042BC90728BF20F8022B48BF00F8012B89
:1081A00000BD0000002800E0401EFDD1704710B562
:1081B00086B0FEF745FBC020ADF8000003208DF827
:1081C00002001C208DF8030000F04CF80020ADF8F0
:1081D00008004BF6FF70ADF80A003C20ADF80C002B
:1081E0004FF48060ADF80E004FF48040ADF8100001
:1081F0005F4801905F4C01A9204601F019FE012162
:10820000204601F075FE06B010BD5B4A012903D17E
:108210000146104600F053B919B90146104600F066
:1082200050B9704780B50121082000F0EDF9C02059
:10823000ADF8000014208DF8030003208DF8020033
:1082400000F010F800F012F800F05BF800F05CF8B5
:1082500000F055F8002100F055F800F050F800F05B
:1082600005F801BD00A9444800F0C4B80021402031
:10827000CBE780B5FFF7FAFF002100F043F800F0EC
:108280003EF800F041F800F03AF800F03AF800F05B
:1082900036F8FFF7EBFF0220BDE8024082E738B571
:1082A0000446082508E000F02DF800F028F800F05A
:1082B0002BF800F024F864002846451EC0B230B107
:1082C000FFF7D4FF20064CBF01210021EBE7FFF7A9
:1082D000CDFF00F016F8FF2400F011F800F043F88D
:1082E00048B900F011F800F00AF8FFF7BFFF00F0FE
:1082F00006F8012032BD641EEED1002032BD0220FE
:1083000050E70121802080E7012140207DE770B502
:10831000044608250026FFF7F4FF0DE0FFF7A6FF4F
:10832000FFF7EDFFFFF7F0FFFFF7E9FF760000F042
:108330001AF808B146F001062846451EC0B20028CA
:10834000ECD1FFF793FF002C0CBF01210021FFF7B8
:10835000D9FFFFF7D4FFFFF7D7FFFFF7D0FFFFF7F5
:1083600085FFF0B270BD8021034800F0A1B8000085
:10837000A086010000540040000C014070B5044686
:108380000D461646FFF74EFF7000C0B201E014F82C
:10839000010BFFF784FF2846451EC0B20028F6D126
:1083A000BDE8704065E7F8B504460D4616461F4621
:1083B000FFF738FF7600F0B2FFF771FF3846FFF79E
:1083C0006EFFFFF72FFF46F00100C0B2FFF767FF17
:1083D00003E0FFF79CFF04F8010B2846451E28B177
:1083E000EDB2002D0CBF00200120F2E7BDE8F14006
:1083F0003FE700002DE9F0410022CC7804F00F03A4
:10840000E40644BF8C7823430C8801250F26E7B28D
:1084100017B3D0F800C005FA02F7BE460EEA04080A
:10842000F04514D14FEA820E06FA0EF82CEA080C39
:1084300003FA0EFE4EEA0C0C91F803E0BEF1280F91
:1084400008BF476103D0BEF1480F08BF0761521C47
:10845000082AE0D3C0F800C0B4F5807F26D3D0F856
:1084600004C0002202F1080705FA07F7BE460EEA2B
:108470000408F04515D14FEA820E06FA0EF82CEAF0
:10848000080C03FA0EFE4EEA0C0C91F803E0BEF164
:10849000280F08BF476191F803E0BEF1480F08BFFD
:1084A0000761521C082ADDD3C0F804C0BDE8F08182
:1084B00000228068084218BF0122104670470161FF
:1084C00070474161704770B5134A00284CBF9469EA
:1084D0001468C0F3034583B2460D3601B34000F47F
:1084E0004016B6F5401F06D124F07064156825F0DB
:1084F0007065156008E0C60243BF032606FA05F55D
:10850000AC439C4344F0706401B11C43002801D586
:10851000946170BD146070BD04000140002201F040
:10852000F1BC00005048016841F001010160416860
:108530004E4A1140416001684D4A11400160016896
:1085400021F480210160416821F4FE0141604FF473
:108550001F018160704747490860704747490860BC
:10856000704745490A68920850EA820008607047DF
:108570004148006800F00C007047414908607047AE
:1085800030B53D490A683F4B02F00C02082A0ED173
:108590000A680C68C2F38342921C3B4D5543E403C6
:1085A00002D50C68A40301D52B4600E053430360B9
:1085B0000B68364A0468C3F303139B5C24FA03F385
:1085C00043600B684468C3F302239B5C24FA03F303
:1085D00083600B684468C3F3C2239B5C24FA03F3F3
:1085E000C3600968C368C1F381318918097CB3FB92
:1085F000F1F1016130BD264A0029116814BF08431A
:1086000021EA000010607047224A0029116814BF57
:10861000084321EA0000106070471F4A00291168D2
:1086200014BF084321EA0000106070471B4A00296C
:10863000116814BF084321EA000010607047002150
:108640004209094B012A08BF1A6803D0022A0CBF4D
:108650001A6A5A6A012300F01F0003FA00F002426E
:1086600018BF012108467047001002400000FFF8C3
:10867000FFFFF6FE0000424204100240600042424A
:10868000D800424200127A0000093D000804002090
:1086900014100240181002401C1002400C1002403E
:1086A000DFF8D4100A6802F0380206E0DFF8C810DC
:1086B0000A6822F010020A600A68104308607047D6
:1086C000FFE7DFF8B800DFF8B8100160DFF8B4109A
:1086D00001607047FFE7DFF8B000016841F08001FA
:1086E0000160704738B5054600F015F804280DD133
:1086F000DFF89440206840F002002060656000F0E0
:1087000006F8216841F6FD721140216032BD2068F3
:1087100040F0400020604FF4302039E070B504464E
:108720000D4600F011F804280CD1174E306840F0C7
:1087300001003060258000F007F8316841F6FE72D4
:108740001140316070BD08804FF4005020E00F49A7
:108750000860704704200D490A68D20701D501203E
:1087600070470A68520701D5022070470968C90698
:1087700048BF032070470000002002400420024050
:1087800023016745AB89EFCD102002400C20024049
:1087900010B5FFE70446FFF7DDFF03E02CB1FFF75C
:1087A000D9FF641E0128F9D004B9052010BD0000CE
:1087B0001B4908431B490860704770B503781A4687
:1087C0000121C478ECB1174B1B6803F4E063C3F5D7
:1087D000E0631B0A4478C3F10405AC4085780F269A
:1087E00026FA03F32B4023431B010F4C135500784B
:1087F00042110E4B00F01F0001FA00F043F8220076
:1088000070BD50110A4A03F01F03994042F820102E
:1088100070BD084A114008430749086070470000CE
:108820000000FA050CED00E000E400E000E100E0EB
:1088300080E100E080FFFF1F08ED00E001684FF6D7
:10884000FE72114001600021016041608160C160E1
:108850003349344A90421DD0334A904221D0334AA2
:10886000904225D0324A904229D0324A90422DD0AF
:10887000314A904203D1086840F4700029E02F4A41
:10888000904203D1086840F0706022E02C492D4AE4
:10889000904203D1086840F00F001AE02A4A904243
:1088A00003D1086840F0F00013E0284A904203D159
:1088B000086840F470600CE0254A904203D10868D3
:1088C00040F4704005E0234A904203D1086840F428
:1088D00070200860704702686FF30E128B681A43AD
:1088E0000B6A1A430B691A434B691A438B691A4383
:1088F000CB691A434B6A1A438B6A1A430260CA68EF
:1089000042600A6882604968C16070470029016856
:1089100012BF41F001014FF6FE7211400160704735
:1089200004000240080002401C00024030000240E7
:1089300044000240580002406C00024080000240A7
:1089400004040240080402401C04024030040240B7
:10895000440402405804024080B55549884208D179
:1089600001214FF40070FFF761FE00214FF4007009
:1089700016E05049884208D101214FF48060FFF78A
:1089800055FE00214FF480600AE04B4988420BD12C
:1089900001214FF40040FFF749FE00214FF4004051
:1089A000BDE80440FFF742BE01BD4268434B1A4098
:1089B0000B681A430B7942EA032242608268404BFB
:1089C0001A40CB681A438B681A434B7942EA430238
:1089D0008260C26A22F47002097C491EC9B242EA6E
:1089E0000151C16270470029816812BF41F0010145
:1089F00049084900816070470029816814BF41F42B
:108A0000807121F4807181607047816841F00801B4
:108A1000816070478068C008FFE700F00100704780
:108A20000029816814BF41F4A00121F4A0018160F4
:108A3000704770B507240A290BD3A1F10A0505EB8D
:108A40004505C668AC4026EA0404AB402343C36036
:108A500008E001EB41050669AC4026EA0404AB409E
:108A6000234303611F23072A0AD2521E02EB82020C
:108A7000446B934024EA030391401943416370BD62
:108A80000D2A0AD2D21F02EB8202046B934024EA21
:108A9000030391401943016370BD0D3A02EB82025A
:108AA000C46A934024EA030391401943C16270BD34
:108AB0000024014000280140003C0140FFFEF0FF7F
:108AC000FDF7F1FF30B50488DFF8D820DFF8BC30BF
:108AD000984218BF90420ED0B0F1804F1CBFDFF813
:108AE000B050A84207D0DFF8AC50A8421CBFDFF856
:108AF000A850A84204D14FF68F752C404D882C43C6
:108B0000DFF89850A8421CBFDFF89450A84204D068
:108B10004FF6FF452C40CD882C4304808C888485FB
:108B20000C880485984218BF90420AD0DFF878205C
:108B300090421FBFDFF874209042DFF8742090420B
:108B400001D1097A01860121818230BD0029018885
:108B500012BF41F001014FF6FE72114001807047D3
:108B6000002A828914BF114322EA010181817047E2
:108B70000029018812BF41F080014FF67F72114039
:108B80000180704700BFC94301827047002C01403B
:108B90000004004000080040000C004000100040AD
:108BA00000140040003401400040014000440140F6
:108BB000004801402DE9F04FA1B0804617461D4600
:108BC000029102AE0020706211AC6FF000490AE021
:108BD00017F8011B0298C0470290002800F06A8233
:108BE000706A401C7062387808B9706A64E225289F
:108BF000EED10020F06030617061B061F0613062F0
:108C000001E040F0010017F8011F2029F9D02329C5
:108C10000DD02B2904D02D2906D030290AD00CE004
:108C200040F0020080B2EEE740F00400FAE740F0C6
:108C30000800F7E740F01000F4E72A290DD1296871
:108C40000A1D2A600968F162002904D54942F162CF
:108C500040F0040080B27F1C12E00021F16209E0C4
:108C6000F16A494505D001EB810302EB430130393C
:108C7000F1627F1C3A78A2F13001C9B20A29EFD320
:108C800039782E2903D04FF0FF31B1621DE017F87B
:108C9000011F2A2906D129680A1D2A600968B162C4
:108CA0007F1C12E00021B16209E0B16A494505D09C
:108CB00001EB810302EB43013039B1627F1C3A784A
:108CC000A2F13001C9B20A29EFD3308639780FF604
:108CD000983001F047F908B117F8010B8DF83A0008
:108CE0009DF83A00682804D1387868280AD16220B3
:108CF00005E06C2804BF38786C2803D171208DF80A
:108D00003A007F1C11A8B0603978B1F1250023D05A
:108D10001C3871D0001F02286ED9133800F09680DD
:108D2000093869D0801E00F02781401E00F0D180F4
:108D3000401E022860D9001F00F0CB80401F30D0B9
:108D4000401E00F08380401E20D0C01E09D0801E2F
:108D50007CD0C01E7AD017E1F068411CF16025215B
:108D60001BE12868011D296000687060B26A002A52
:108D700002D500F0B9FD07E0002101F0FFF800285E
:108D80001ABF7168401AB06A306107E12868011D96
:108D9000296000680021CDE9000111A870607821E8
:108DA000E6E09DF83A00622818D0682806D06A28C4
:108DB0000BD06C2819D0712807D016E02868011D47
:108DC0002960716A00680180E8E02A68101D286047
:108DD000706AC1171268C2E90001DFE02868011D4E
:108DE0002960716A00680170D8E02868011D296057
:108DF000716A00680160D1E02868C01D20F007009A
:108E0000286000F108022A60D0E90023CDE90023A0
:108E1000002B04D5F068421CF2602D220DE0308E4C
:108E2000820704D5F068421CF2602B2205E0C007DF
:108E300004D5F068421CF26020220255F06811AAA5
:108E40008018706000A800F0C5F9A7E09DF83A000E
:108E50006C2808BF2A6811D0712808BF2A6802D080
:108E60006A282A680AD1D21D22F007022A60944695
:108E70000CF108022A60DCE9002303E0131D2B60DB
:108E800012680023CDE90023682808BF92B207D0FA
:108E9000622808BFD2B203D0742818BF7A2802D142
:108EA0000023CDE9002396F8300000075CD5DDE90A
:108EB0000023002B08BF002A56D041F0200078285C
:108EC00052D1F06830220255401C421CF26001551C
:108ED0004AE09DF83A0062280CD0682810D06A2831
:108EE0001AD06C2823D0712816D074281FD07A2865
:108EF0000CD01CE02868021D2A6090F900201AE0BE
:108F00002868021D2A60B0F9002014E02868021DBC
:108F10002A60026800230FE02868C01D20F00700C7
:108F2000286000F108022A60D0E9002304E02868E4
:108F3000021D2A600268D317CDE90023002B04DA52
:108F4000F068421CF2602D220DE0308E820704D5BD
:108F5000F068421CF2602B2205E0C00704D5F068DF
:108F6000421CF26020220255F06811AA801870603D
:108F700000A800F0A4F811E0F068411CF160296835
:108F80000A1D2A60096808E0F068421CF260252288
:108F9000025519B1F068421CF26001557F1CF06A5D
:108FA000F168401AB169401A3169401AF169401AF2
:108FB0007169401A316AA0EB010A96F83000400747
:108FC00011D420208DF84000BAF1010F0BDBD346FD
:108FD000012310AA00A9404600F02FFC002869D107
:108FE000BBF1010BF4D1F36811AA00A9404600F0CF
:108FF00024FC00285ED130208DF84000D6F818B04F
:10900000BBF1010F0ADB012310AA00A9404600F0C2
:1090100014FC00284ED1BBF1010BF4D13369726806
:1090200000A9404600F009FC002843D130208DF80B
:109030004000D6F81CB0BBF1010F09DB012310AAD8
:1090400000A9404600F0F9FBA0BBBBF1010BF5D134
:10905000736930697168421800A9404600F0EDFB61
:1090600040BB30208DF84000D6F820B0BBF1010F96
:1090700009DB012310AA00A9404600F0DEFBC8B9B5
:10908000BBF1010BF5D196F8300040077FF5ABAD91
:1090900020208DF84000BAF1010FFFF6A4AD0123A6
:1090A00010AA00A9404600F0C8FB18B9BAF1010A9D
:1090B000F5D198E54FF0FF3021B0BDE8F08F2DE9F4
:1090C000FA4782B0064635696F2908BF082705D0E0
:1090D00041F02000782814BF0A2710273C24D6E945
:1090E0000001804689469DF80820642A18BF692A35
:1090F00005D1002903DAD8F1000869EB4909B9F173
:10910000000F08BFB8F1000F0CD1306B50B9082F19
:109110003BD196F83800000737D53B24302085F83E
:109120003B0032E0A4F1010A5446FB174046494691
:109130003A4600F04FFFCDE90089B846A8FB00236E
:10914000DDE90089A8EB02023032D2B23A2A03D319
:109150009DF80830513B9A180AF8052080465FEACE
:10916000010908BFB8F1000F03D0F0686119884207
:10917000D8D3082F09D196F83800000705D5605DCF
:10918000302802D0641E30206055C4F13C00B0612C
:109190006119F160316B884207DA081A3062308F4A
:1091A0004FF6EF710840308710E000290ED596F891
:1091B000381001F01401102908D1716B7269891AF5
:1091C000326A891A081A0128A8BF306204B0BDE8C3
:1091D000F08700002DE9F24F8EB0044604AED4E9CA
:1091E0000001CDE902019DF8380040F020008DF823
:1091F000000061280BD0206B002848BF062005D452
:1092000004BF9DF80000672801D101202063616838
:10921000C1F30A5040F2FF7398421ED1080304BF05
:10922000206800280AD10320A0619DF83800613829
:10923000C0B21A2838D30FF2446109E00320A061BC
:109240009DF838006138C0B21A282AD30FF2246181
:109250000322E068FDF77EFFB9E1012817DA204616
:1092600000F02FFF012812DB002700209DF80010DE
:10927000612920D1E168302201F8012B4A1CE2600B
:109280009DF83820612A0CBF782258220FE040F266
:10929000FE31626861F31E526260471A4FF0FF3080
:1092A000E4E70FF2CC51D3E70FF2CC51D0E70A70CC
:1092B0006169891C616110B9002500277EE19DF874
:1092C0000000612840F09780206B00284CBF2125CA
:1092D000451C2DB26E1CD4E90089DDE90201002293
:1092E000002300F00FFF3ABF89F00040CDE9028073
:1092F000CDE902893F1F8DF810200DF11108012ED4
:1093000035DBDDE902010022002300F013FF2ED23D
:109310001C2102A800F026FFDDE9020100F0A8FFF1
:109320008146F61F012E09DB00F0CEFF02460B46F8
:10933000DDE9020100F0E0FFCDE9020108F20700DB
:10934000072105E009F00F0200F8012D4FEA291965
:10935000B9F1010F01DB491EF4D5491E5CBF0022A3
:1093600000F8012DF9D500F20708012EC9DA0DF138
:109370001100A8EB00010DF11106A942B8BF0D467E
:109380002DB2002D30D42846884206DA04A94118AF
:109390004978082928BF0F2100D2002104AA821889
:1093A00000E06D1E401E12F801398B42F9D00F29E2
:1093B00004D104A941184A78521C4A70002802D5E9
:1093C00004AE6D1C3F1D2DB2681E0DD481190A78A4
:1093D0003032D2B23A2A03D39DF838303A3B9A1849
:1093E00001F80129401EF2D5206B002840F1E680EB
:1093F000681E2063E2E0DDE902010022002300F0A4
:1094000081FE3CBF81F00041CDE902013FB247F24D
:1094100097507843474990FBF1F73FB2C7F10706F1
:109420009246DFF814B1012E19DBDDE90289F0075D
:1094300007D552465B464046494601F01DF8804636
:10944000894676105046594652465B4601F014F85C
:1094500082468B46002EEAD1CDE9028921E0764290
:109460009046DFF8D89012E0F00707D552465B46E9
:109470004046494601F000F880468946761050463D
:10948000594652465B4600F0F7FF82468B46002E57
:10949000EAD1DDE9020142464B4601F0BFF8CDE9D1
:1094A00002019DF8000066280CBF07F10A000620A3
:1094B000216B4518142DA8BF132530208DF81000FE
:1094C0000DF11106DFF87890012D3BDBDDE902019B
:1094D00000F0E4FE06F1080104220A26B0FBF6F3D0
:1094E00003EB830EA0EB4E00303001F8010DB3FB0F
:1094F000F6F000EB8006A3EB4603303301F8013DA4
:10950000521EEAD101F10806083D012DDCDBDDE940
:10951000020100F0C3FE00F0E1FE02460B46DDE969
:10952000020100F0E9FE00224B4600F0A5FFCDE964
:109530000201CBE7A0860100000024400000F03FBC
:1095400084D797410DF11100301A0DF1110602E098
:10955000401E7F1E761C31783029F9D09DF800100E
:10956000662902D13FB2791C03E065290CBF0121B5
:109570000021226B8D182DB2A842B8BF05462DB22E
:10958000002D1BD42946814204DA885D352828BF86
:10959000392000D230208A19521E00E06D1E491E6B
:1095A00012F801398342F9D0392802D1885D401C74
:1095B0008855002902D5761E6D1C7F1C3FB200978E
:1095C0002BB232469DF83810204600F003F80FB059
:1095D000BDE8F08F2DE9F04385B005468946174672
:1095E0001E46D5F83080012E02DA01260FF29027B0
:1095F00049F02000BDF93040662808BF641C18D02F
:10960000672840F082806FF003008442C0F28380BC
:10961000444580F28080641C95F83800000702D42D
:109620004645B8BFB04624B2B8EB040848BF4FF077
:109630000008E868A96924B2012C25DA4A1C302305
:109640000B54B8F1010F03DA95F83810090702D569
:109650002E211154521CAA6118EB040FB8BFC8F197
:10966000000424B261426962A044B045B8BF4646D6
:1096700036B2EE6132463946AB691818FDF76AFD1D
:10968000A8EB0600A862C1E00818A64218DA324624
:109690003946FDF75FFDA9697118A961A01B6862D1
:1096A000B8F1010F03DA95F83800000705D5E8682E
:1096B0002E220A54E869401CE861C5F82880A5E01C
:1096C00022463946FDF746FDA8692018361BB8F139
:1096D000010F03DA95F83810090703D5E9682E223F
:1096E0004254401CA86136B2B045B8BF464636B2B7
:1096F0003246E119EB68C018FDF72CFDA869301857
:10970000A861A8EB0600686280E0B9F1610F16D18C
:109710004FF0700918E0464504DA95F8381009074B
:1097200058BFB046B8F1010848BF4FF00008B9F182
:10973000670F14BF4FF045094FF0650904E0B9F118
:10974000410F08BF4FF05009A9694A1CE86817F893
:10975000013B0B54B8F1010F05DA95F838100907F1
:1097600058BFAA6117D52E211154531CAB61B8F113
:10977000010F10DB761E36B2B045B8BF464636B292
:10978000324639461818FDF7E5FCA8693018A8617B
:10979000A8EB06006862A869E968471807F8019B0A
:1097A000002C03D42B2007F8010B03E02D2007F831
:1097B000010B644200260DF1080809E00A22214647
:1097C00000A801F04EF8019808F8010B009C761CE7
:1097D00024B2012CF2DA022E06DA49F020006528C4
:1097E00004BF302007F8010B4EB9302007F8010BF9
:1097F00007E0761E02A8305C303007F8010B012E1E
:10980000F7DAA869E9684018381AE86195F838006D
:1098100000F0140010280DD16869A9690818696A58
:109820000818E9690818A96A0818696B8842BCBF5A
:10983000081A286205B0BDE8F083F8B504460D4665
:1098400016461F46002077B116F8011BA868A047EE
:10985000A86030B1E86A401CE86200207F1EF3D1A6
:10986000F2BD4FF0FF30F2BD686A6C747A4C0000B4
:109870006E616E004E414E00696E6600494E4600B4
:10988000300000000300002013F0030F09D0521E27
:1098900022BF13F8010B11F801CBB0EB0C00F3D091
:1098A0007047121F22BF53F8040B51F804CB6045D8
:1098B000F7D0121D0AD200BA9CFA8CFCB0EB0C0057
:1098C00038BF6FF0000088BF01207047521E22BFD2
:1098D00013F8010B11F801CBB0EB0C00F6D0521CC1
:1098E00008BF10467047000000F10103810704D053
:1098F00010F8011B89B18107FAD10268B2F1013178
:10990000914311F0803F04BF50F8042FF6E710F8A0
:10991000011B11B110F8011BFBE7C01A704702468A
:1099200000E0521C1378002BFBD111F8013B13709F
:1099300012F8013B002BF8D17047000038B50446FF
:109940000D461048FEF724FF05281CBF3420FEF703
:10995000FEFE29462046BDE83440FEF7DFBE10B5C6
:109960000446A0050CD10748FEF712FF05281CBFCE
:109970003420FEF7ECFE2046BDE81040FEF7B2BEF4
:1099800010BD0000A086010010B5490001F1804122
:1099900001F5C041521C521009E010F8013B10F8CB
:1099A000014B43EA042321F8023B891C521EF4D1E7
:1099B00010BD490001F1804101F5C041521C521017
:1099C00004E051F8043B20F8023B521EF9D17047E5
:1099D0004FF6F8710840DFF890110860704710B535
:1099E000DFF8882152F8203048F68F1423401943BD
:1099F00024E010B5DFF8742152F8203048F6BF7427
:109A00002340CC0648BF83F01003890648BF83F08B
:109A100020030FE010B5DFF8542152F820304BF648
:109A20008F742340CC0448BF83F48053890448BF1B
:109A300083F4005343F4004141F0800142F82010C8
:109A400010BDDFF8281151F820204BF68F731A4013
:109A500082F4405242F4004209E0DFF8101151F85C
:109A6000202048F68F631A4042F40042FFE742F09C
:109A7000800241F820207047DFF8F01051F82020D4
:109A800052040AD551F8202048F68F731A4042F448
:109A9000404242F0800241F820207047334951F89B
:109AA000202052060AD551F8202048F68F731A401C
:109AB00042F4004242F0C00241F82020704738E0F2
:109AC000294A126892B202EBC000294A37E03BE013
:109AD0002549096889B201EBC00025493AE0224ACC
